{
  "_format": "hh-sol-artifact-1",
  "contractName": "Create",
  "sourceName": "contracts/VotingContract.sol",
  "abi": [
    {
      "inputs": [],
      "stateMutability": "nonpayable",
      "type": "constructor"
    },
    {
      "anonymous": false,
      "inputs": [
        {
          "indexed": true,
          "internalType": "uint256",
          "name": "candidateId",
          "type": "uint256"
        },
        {
          "indexed": false,
          "internalType": "string",
          "name": "party",
          "type": "string"
        },
        {
          "indexed": false,
          "internalType": "string",
          "name": "name",
          "type": "string"
        },
        {
          "indexed": false,
          "internalType": "string",
          "name": "image",
          "type": "string"
        },
        {
          "indexed": false,
          "internalType": "uint256",
          "name": "voteCount",
          "type": "uint256"
        },
        {
          "indexed": false,
          "internalType": "address",
          "name": "_address",
          "type": "address"
        },
        {
          "indexed": false,
          "internalType": "string",
          "name": "ipfs",
          "type": "string"
        }
      ],
      "name": "CandidateCreate",
      "type": "event"
    },
    {
      "anonymous": false,
      "inputs": [
        {
          "indexed": true,
          "internalType": "uint256",
          "name": "voter_voterId",
          "type": "uint256"
        },
        {
          "indexed": false,
          "internalType": "string",
          "name": "voter_name",
          "type": "string"
        },
        {
          "indexed": false,
          "internalType": "string",
          "name": "voter_image",
          "type": "string"
        },
        {
          "indexed": false,
          "internalType": "address",
          "name": "voter_address",
          "type": "address"
        },
        {
          "indexed": false,
          "internalType": "uint256",
          "name": "voter_allowed",
          "type": "uint256"
        },
        {
          "indexed": false,
          "internalType": "bool",
          "name": "voter_voted",
          "type": "bool"
        },
        {
          "indexed": false,
          "internalType": "uint256",
          "name": "voter_vote",
          "type": "uint256"
        },
        {
          "indexed": false,
          "internalType": "string",
          "name": "voter_ipfs",
          "type": "string"
        }
      ],
      "name": "VoterCreated",
      "type": "event"
    },
    {
      "inputs": [],
      "name": "_candidateId",
      "outputs": [
        {
          "internalType": "uint256",
          "name": "_value",
          "type": "uint256"
        }
      ],
      "stateMutability": "view",
      "type": "function"
    },
    {
      "inputs": [],
      "name": "_voterId",
      "outputs": [
        {
          "internalType": "uint256",
          "name": "_value",
          "type": "uint256"
        }
      ],
      "stateMutability": "view",
      "type": "function"
    },
    {
      "inputs": [
        {
          "internalType": "uint256",
          "name": "",
          "type": "uint256"
        }
      ],
      "name": "candidateAddress",
      "outputs": [
        {
          "internalType": "address",
          "name": "",
          "type": "address"
        }
      ],
      "stateMutability": "view",
      "type": "function"
    },
    {
      "inputs": [
        {
          "internalType": "address",
          "name": "",
          "type": "address"
        }
      ],
      "name": "candidates",
      "outputs": [
        {
          "internalType": "uint256",
          "name": "candidateId",
          "type": "uint256"
        },
        {
          "internalType": "string",
          "name": "party",
          "type": "string"
        },
        {
          "internalType": "string",
          "name": "name",
          "type": "string"
        },
        {
          "internalType": "string",
          "name": "image",
          "type": "string"
        },
        {
          "internalType": "uint256",
          "name": "voteCount",
          "type": "uint256"
        },
        {
          "internalType": "address",
          "name": "_address",
          "type": "address"
        },
        {
          "internalType": "string",
          "name": "ipfs",
          "type": "string"
        }
      ],
      "stateMutability": "view",
      "type": "function"
    },
    {
      "inputs": [],
      "name": "getCandidate",
      "outputs": [
        {
          "internalType": "address[]",
          "name": "",
          "type": "address[]"
        }
      ],
      "stateMutability": "view",
      "type": "function"
    },
    {
      "inputs": [
        {
          "internalType": "address",
          "name": "_address",
          "type": "address"
        }
      ],
      "name": "getCandidateData",
      "outputs": [
        {
          "internalType": "string",
          "name": "",
          "type": "string"
        },
        {
          "internalType": "string",
          "name": "",
          "type": "string"
        },
        {
          "internalType": "uint256",
          "name": "",
          "type": "uint256"
        },
        {
          "internalType": "string",
          "name": "",
          "type": "string"
        },
        {
          "internalType": "uint256",
          "name": "",
          "type": "uint256"
        },
        {
          "internalType": "string",
          "name": "",
          "type": "string"
        },
        {
          "internalType": "address",
          "name": "",
          "type": "address"
        }
      ],
      "stateMutability": "view",
      "type": "function"
    },
    {
      "inputs": [],
      "name": "getCandidateLength",
      "outputs": [
        {
          "internalType": "uint256",
          "name": "",
          "type": "uint256"
        }
      ],
      "stateMutability": "view",
      "type": "function"
    },
    {
      "inputs": [],
      "name": "getVotedVotersList",
      "outputs": [
        {
          "internalType": "address[]",
          "name": "",
          "type": "address[]"
        }
      ],
      "stateMutability": "view",
      "type": "function"
    },
    {
      "inputs": [
        {
          "internalType": "address",
          "name": "_address",
          "type": "address"
        }
      ],
      "name": "getVoterData",
      "outputs": [
        {
          "internalType": "uint256",
          "name": "",
          "type": "uint256"
        },
        {
          "internalType": "string",
          "name": "",
          "type": "string"
        },
        {
          "internalType": "string",
          "name": "",
          "type": "string"
        },
        {
          "internalType": "address",
          "name": "",
          "type": "address"
        },
        {
          "internalType": "string",
          "name": "",
          "type": "string"
        },
        {
          "internalType": "uint256",
          "name": "",
          "type": "uint256"
        },
        {
          "internalType": "bool",
          "name": "",
          "type": "bool"
        }
      ],
      "stateMutability": "view",
      "type": "function"
    },
    {
      "inputs": [],
      "name": "getVoterLength",
      "outputs": [
        {
          "internalType": "uint256",
          "name": "",
          "type": "uint256"
        }
      ],
      "stateMutability": "view",
      "type": "function"
    },
    {
      "inputs": [],
      "name": "getVoterList",
      "outputs": [
        {
          "internalType": "address[]",
          "name": "",
          "type": "address[]"
        }
      ],
      "stateMutability": "view",
      "type": "function"
    },
    {
      "inputs": [],
      "name": "getWinner",
      "outputs": [
        {
          "internalType": "address[]",
          "name": "",
          "type": "address[]"
        }
      ],
      "stateMutability": "view",
      "type": "function"
    },
    {
      "inputs": [
        {
          "internalType": "address",
          "name": "_address",
          "type": "address"
        },
        {
          "internalType": "string",
          "name": "_party",
          "type": "string"
        },
        {
          "internalType": "string",
          "name": "_name",
          "type": "string"
        },
        {
          "internalType": "string",
          "name": "_image",
          "type": "string"
        },
        {
          "internalType": "string",
          "name": "_ipfs",
          "type": "string"
        }
      ],
      "name": "setCandidate",
      "outputs": [],
      "stateMutability": "nonpayable",
      "type": "function"
    },
    {
      "inputs": [
        {
          "internalType": "address",
          "name": "_candidateAddress",
          "type": "address"
        },
        {
          "internalType": "uint256",
          "name": "_candidateVoteId",
          "type": "uint256"
        }
      ],
      "name": "vote",
      "outputs": [],
      "stateMutability": "nonpayable",
      "type": "function"
    },
    {
      "inputs": [
        {
          "internalType": "uint256",
          "name": "",
          "type": "uint256"
        }
      ],
      "name": "votedVoters",
      "outputs": [
        {
          "internalType": "address",
          "name": "",
          "type": "address"
        }
      ],
      "stateMutability": "view",
      "type": "function"
    },
    {
      "inputs": [
        {
          "internalType": "address",
          "name": "_address",
          "type": "address"
        },
        {
          "internalType": "string",
          "name": "_name",
          "type": "string"
        },
        {
          "internalType": "string",
          "name": "_image",
          "type": "string"
        },
        {
          "internalType": "string",
          "name": "_ipfs",
          "type": "string"
        }
      ],
      "name": "voterRight",
      "outputs": [],
      "stateMutability": "nonpayable",
      "type": "function"
    },
    {
      "inputs": [
        {
          "internalType": "address",
          "name": "",
          "type": "address"
        }
      ],
      "name": "voters",
      "outputs": [
        {
          "internalType": "uint256",
          "name": "voter_voterId",
          "type": "uint256"
        },
        {
          "internalType": "string",
          "name": "voter_name",
          "type": "string"
        },
        {
          "internalType": "string",
          "name": "voter_image",
          "type": "string"
        },
        {
          "internalType": "address",
          "name": "voter_address",
          "type": "address"
        },
        {
          "internalType": "uint256",
          "name": "voter_allowed",
          "type": "uint256"
        },
        {
          "internalType": "bool",
          "name": "voter_voted",
          "type": "bool"
        },
        {
          "internalType": "uint256",
          "name": "voter_vote",
          "type": "uint256"
        },
        {
          "internalType": "string",
          "name": "voter_ipfs",
          "type": "string"
        }
      ],
      "stateMutability": "view",
      "type": "function"
    },
    {
      "inputs": [
        {
          "internalType": "uint256",
          "name": "",
          "type": "uint256"
        }
      ],
      "name": "votersAddress",
      "outputs": [
        {
          "internalType": "address",
          "name": "",
          "type": "address"
        }
      ],
      "stateMutability": "view",
      "type": "function"
    },
    {
      "inputs": [],
      "name": "votingOrganizer",
      "outputs": [
        {
          "internalType": "address",
          "name": "",
          "type": "address"
        }
      ],
      "stateMutability": "view",
      "type": "function"
    }
  ],
  "bytecode": "0x608060405234801561001057600080fd5b5033600260006101000a81548173ffffffffffffffffffffffffffffffffffffffff021916908373ffffffffffffffffffffffffffffffffffffffff160217905550612861806100616000396000f3fe608060405234801561001057600080fd5b50600436106101215760003560e01c80637831ffb3116100ad578063a738896711610071578063a73889671461035d578063b28d92ae1461037b578063b9be315214610399578063c91ec712146103b7578063f7522a83146103d357610121565b80637831ffb31461026c5780638ab66a901461029c5780638e7ea5b2146102d25780638fb4cd80146102f0578063a3ec138d1461032657610121565b80633a88251a116100f45780633a88251a146101b457806343242daa146101e45780635cc48aa7146102145780635f74bbde1461023257806370218b851461024e57610121565b80630361419e1461012657806305ad45a41461014257806313182dce146101605780632a466ac71461017e575b600080fd5b610140600480360381019061013b9190611d39565b6103f1565b005b61014a610685565b6040516101579190611e0d565b60405180910390f35b610168610692565b6040516101759190611ee6565b60405180910390f35b61019860048036038101906101939190611f08565b610720565b6040516101ab9796959493929190611fcc565b60405180910390f35b6101ce60048036038101906101c99190612083565b610b67565b6040516101db91906120b0565b60405180910390f35b6101fe60048036038101906101f99190612083565b610ba6565b60405161020b91906120b0565b60405180910390f35b61021c610be5565b60405161022991906120b0565b60405180910390f35b61024c600480360381019061024791906120cb565b610c0b565b005b610256610dd3565b6040516102639190611ee6565b60405180910390f35b61028660048036038101906102819190612083565b610e61565b60405161029391906120b0565b60405180910390f35b6102b660048036038101906102b19190611f08565b610ea0565b6040516102c9979695949392919061210b565b60405180910390f35b6102da611122565b6040516102e79190611ee6565b60405180910390f35b61030a60048036038101906103059190611f08565b6111b0565b60405161031d97969594939291906121b1565b60405180910390f35b610340600480360381019061033b9190611f08565b611578565b604051610354989796959493929190612235565b60405180910390f35b610365611785565b6040516103729190611e0d565b60405180910390f35b610383611791565b6040516103909190611ee6565b60405180910390f35b6103a161181f565b6040516103ae9190611e0d565b60405180910390f35b6103d160048036038101906103cc91906122c8565b61182b565b005b6103db611aad565b6040516103e89190611e0d565b60405180910390f35b3373ffffffffffffffffffffffffffffffffffffffff16600260009054906101000a900473ffffffffffffffffffffffffffffffffffffffff1673ffffffffffffffffffffffffffffffffffffffff1614610481576040517f08c379a000000000000000000000000000000000000000000000000000000000815260040161047890612425565b60405180910390fd5b61048b6000611aba565b60006104976000611ad0565b90506000600760008773ffffffffffffffffffffffffffffffffffffffff1673ffffffffffffffffffffffffffffffffffffffff168152602001908152602001600020905060008160040154146104ed57600080fd5b600181600401819055508481600101908051906020019061050f929190611ade565b5083816002019080519060200190610528929190611ade565b50858160030160006101000a81548173ffffffffffffffffffffffffffffffffffffffff021916908373ffffffffffffffffffffffffffffffffffffffff1602179055508181600001819055506103e8816006018190555060008160050160006101000a81548160ff021916908315150217905550828160070190805190602001906105b5929190611ade565b506006869080600181540180825580915050600190039060005260206000200160009091909190916101000a81548173ffffffffffffffffffffffffffffffffffffffff021916908373ffffffffffffffffffffffffffffffffffffffff16021790555080600001547ff5f39971dd62d9929e3a9feaa6bb77fe7c7da0001babff8a65a7e51ad0201c1986868985600401548660050160009054906101000a900460ff16876006015488600701604051610675979695949392919061253b565b60405180910390a2505050505050565b6000600680549050905090565b6060600580548060200260200160405190810160405280929190818152602001828054801561071657602002820191906000526020600020905b8160009054906101000a900473ffffffffffffffffffffffffffffffffffffffff1673ffffffffffffffffffffffffffffffffffffffff16815260200190600101908083116106cc575b5050505050905090565b60608060006060600060606000600460008973ffffffffffffffffffffffffffffffffffffffff1673ffffffffffffffffffffffffffffffffffffffff168152602001908152602001600020600101600460008a73ffffffffffffffffffffffffffffffffffffffff1673ffffffffffffffffffffffffffffffffffffffff168152602001908152602001600020600201600460008b73ffffffffffffffffffffffffffffffffffffffff1673ffffffffffffffffffffffffffffffffffffffff16815260200190815260200160002060000154600460008c73ffffffffffffffffffffffffffffffffffffffff1673ffffffffffffffffffffffffffffffffffffffff168152602001908152602001600020600301600460008d73ffffffffffffffffffffffffffffffffffffffff1673ffffffffffffffffffffffffffffffffffffffff16815260200190815260200160002060040154600460008e73ffffffffffffffffffffffffffffffffffffffff1673ffffffffffffffffffffffffffffffffffffffff168152602001908152602001600020600601600460008f73ffffffffffffffffffffffffffffffffffffffff1673ffffffffffffffffffffffffffffffffffffffff16815260200190815260200160002060050160009054906101000a900473ffffffffffffffffffffffffffffffffffffffff1686805461092a90612474565b80601f016020809104026020016040519081016040528092919081815260200182805461095690612474565b80156109a35780601f10610978576101008083540402835291602001916109a3565b820191906000526020600020905b81548152906001019060200180831161098657829003601f168201915b505050505096508580546109b690612474565b80601f01602080910402602001604051908101604052809291908181526020018280546109e290612474565b8015610a2f5780601f10610a0457610100808354040283529160200191610a2f565b820191906000526020600020905b815481529060010190602001808311610a1257829003601f168201915b50505050509550838054610a4290612474565b80601f0160208091040260200160405190810160405280929190818152602001828054610a6e90612474565b8015610abb5780601f10610a9057610100808354040283529160200191610abb565b820191906000526020600020905b815481529060010190602001808311610a9e57829003601f168201915b50505050509350818054610ace90612474565b80601f0160208091040260200160405190810160405280929190818152602001828054610afa90612474565b8015610b475780601f10610b1c57610100808354040283529160200191610b47565b820191906000526020600020905b815481529060010190602001808311610b2a57829003601f168201915b505050505091509650965096509650965096509650919395979092949650565b60038181548110610b7757600080fd5b906000526020600020016000915054906101000a900473ffffffffffffffffffffffffffffffffffffffff1681565b60068181548110610bb657600080fd5b906000526020600020016000915054906101000a900473ffffffffffffffffffffffffffffffffffffffff1681565b600260009054906101000a900473ffffffffffffffffffffffffffffffffffffffff1681565b6000600760003373ffffffffffffffffffffffffffffffffffffffff1673ffffffffffffffffffffffffffffffffffffffff16815260200190815260200160002090508060050160009054906101000a900460ff1615610ca0576040517f08c379a0000000000000000000000000000000000000000000000000000000008152600401610c979061260b565b60405180910390fd5b600081600401541415610ce8576040517f08c379a0000000000000000000000000000000000000000000000000000000008152600401610cdf90612677565b60405180910390fd5b60018160050160006101000a81548160ff0219169083151502179055508181600601819055506005339080600181540180825580915050600190039060005260206000200160009091909190916101000a81548173ffffffffffffffffffffffffffffffffffffffff021916908373ffffffffffffffffffffffffffffffffffffffff1602179055508060040154600460008573ffffffffffffffffffffffffffffffffffffffff1673ffffffffffffffffffffffffffffffffffffffff1681526020019081526020016000206004016000828254610dc791906126c6565b92505081905550505050565b60606003805480602002602001604051908101604052809291908181526020018280548015610e5757602002820191906000526020600020905b8160009054906101000a900473ffffffffffffffffffffffffffffffffffffffff1673ffffffffffffffffffffffffffffffffffffffff1681526020019060010190808311610e0d575b5050505050905090565b60058181548110610e7157600080fd5b906000526020600020016000915054906101000a900473ffffffffffffffffffffffffffffffffffffffff1681565b6004602052806000526040600020600091509050806000015490806001018054610ec990612474565b80601f0160208091040260200160405190810160405280929190818152602001828054610ef590612474565b8015610f425780601f10610f1757610100808354040283529160200191610f42565b820191906000526020600020905b815481529060010190602001808311610f2557829003601f168201915b505050505090806002018054610f5790612474565b80601f0160208091040260200160405190810160405280929190818152602001828054610f8390612474565b8015610fd05780601f10610fa557610100808354040283529160200191610fd0565b820191906000526020600020905b815481529060010190602001808311610fb357829003601f168201915b505050505090806003018054610fe590612474565b80601f016020809104026020016040519081016040528092919081815260200182805461101190612474565b801561105e5780601f106110335761010080835404028352916020019161105e565b820191906000526020600020905b81548152906001019060200180831161104157829003601f168201915b5050505050908060040154908060050160009054906101000a900473ffffffffffffffffffffffffffffffffffffffff169080600601805461109f90612474565b80601f01602080910402602001604051908101604052809291908181526020018280546110cb90612474565b80156111185780601f106110ed57610100808354040283529160200191611118565b820191906000526020600020905b8154815290600101906020018083116110fb57829003601f168201915b5050505050905087565b606060038054806020026020016040519081016040528092919081815260200182805480156111a657602002820191906000526020600020905b8160009054906101000a900473ffffffffffffffffffffffffffffffffffffffff1673ffffffffffffffffffffffffffffffffffffffff168152602001906001019080831161115c575b5050505050905090565b600060608060006060600080600760008973ffffffffffffffffffffffffffffffffffffffff1673ffffffffffffffffffffffffffffffffffffffff16815260200190815260200160002060000154600760008a73ffffffffffffffffffffffffffffffffffffffff1673ffffffffffffffffffffffffffffffffffffffff168152602001908152602001600020600101600760008b73ffffffffffffffffffffffffffffffffffffffff1673ffffffffffffffffffffffffffffffffffffffff168152602001908152602001600020600201600760008c73ffffffffffffffffffffffffffffffffffffffff1673ffffffffffffffffffffffffffffffffffffffff16815260200190815260200160002060030160009054906101000a900473ffffffffffffffffffffffffffffffffffffffff16600760008d73ffffffffffffffffffffffffffffffffffffffff1673ffffffffffffffffffffffffffffffffffffffff168152602001908152602001600020600701600760008e73ffffffffffffffffffffffffffffffffffffffff1673ffffffffffffffffffffffffffffffffffffffff16815260200190815260200160002060040154600760008f73ffffffffffffffffffffffffffffffffffffffff1673ffffffffffffffffffffffffffffffffffffffff16815260200190815260200160002060050160009054906101000a900460ff168580546113c790612474565b80601f01602080910402602001604051908101604052809291908181526020018280546113f390612474565b80156114405780601f1061141557610100808354040283529160200191611440565b820191906000526020600020905b81548152906001019060200180831161142357829003601f168201915b5050505050955084805461145390612474565b80601f016020809104026020016040519081016040528092919081815260200182805461147f90612474565b80156114cc5780601f106114a1576101008083540402835291602001916114cc565b820191906000526020600020905b8154815290600101906020018083116114af57829003601f168201915b505050505094508280546114df90612474565b80601f016020809104026020016040519081016040528092919081815260200182805461150b90612474565b80156115585780601f1061152d57610100808354040283529160200191611558565b820191906000526020600020905b81548152906001019060200180831161153b57829003601f168201915b505050505092509650965096509650965096509650919395979092949650565b60076020528060005260406000206000915090508060000154908060010180546115a190612474565b80601f01602080910402602001604051908101604052809291908181526020018280546115cd90612474565b801561161a5780601f106115ef5761010080835404028352916020019161161a565b820191906000526020600020905b8154815290600101906020018083116115fd57829003601f168201915b50505050509080600201805461162f90612474565b80601f016020809104026020016040519081016040528092919081815260200182805461165b90612474565b80156116a85780601f1061167d576101008083540402835291602001916116a8565b820191906000526020600020905b81548152906001019060200180831161168b57829003601f168201915b5050505050908060030160009054906101000a900473ffffffffffffffffffffffffffffffffffffffff16908060040154908060050160009054906101000a900460ff169080600601549080600701805461170290612474565b80601f016020809104026020016040519081016040528092919081815260200182805461172e90612474565b801561177b5780601f106117505761010080835404028352916020019161177b565b820191906000526020600020905b81548152906001019060200180831161175e57829003601f168201915b5050505050905088565b60018060000154905081565b6060600680548060200260200160405190810160405280929190818152602001828054801561181557602002820191906000526020600020905b8160009054906101000a900473ffffffffffffffffffffffffffffffffffffffff1673ffffffffffffffffffffffffffffffffffffffff16815260200190600101908083116117cb575b5050505050905090565b60008060000154905081565b3373ffffffffffffffffffffffffffffffffffffffff16600260009054906101000a900473ffffffffffffffffffffffffffffffffffffffff1673ffffffffffffffffffffffffffffffffffffffff16146118bb576040517f08c379a00000000000000000000000000000000000000000000000000000000081526004016118b29061278e565b60405180910390fd5b6118c56001611aba565b60006118d16001611ad0565b90506000600460008873ffffffffffffffffffffffffffffffffffffffff1673ffffffffffffffffffffffffffffffffffffffff16815260200190815260200160002090508581600101908051906020019061192e929190611ade565b5084816002019080519060200190611947929190611ade565b5081816000018190555083816003019080519060200190611969929190611ade565b5060008160040181905550868160050160006101000a81548173ffffffffffffffffffffffffffffffffffffffff021916908373ffffffffffffffffffffffffffffffffffffffff160217905550828160060190805190602001906119cf929190611ade565b506003879080600181540180825580915050600190039060005260206000200160009091909190916101000a81548173ffffffffffffffffffffffffffffffffffffffff021916908373ffffffffffffffffffffffffffffffffffffffff16021790555080600001547fd297f12b256bb8485a6013fb5e302017018123e99a0ebb20756c09e1707b4b9087878785600401548660050160009054906101000a900473ffffffffffffffffffffffffffffffffffffffff1687600601604051611a9c969594939291906127ae565b60405180910390a250505050505050565b6000600380549050905090565b6001816000016000828254019250508190555050565b600081600001549050919050565b828054611aea90612474565b90600052602060002090601f016020900481019282611b0c5760008555611b53565b82601f10611b2557805160ff1916838001178555611b53565b82800160010185558215611b53579182015b82811115611b52578251825591602001919060010190611b37565b5b509050611b609190611b64565b5090565b5b80821115611b7d576000816000905550600101611b65565b5090565b6000604051905090565b600080fd5b600080fd5b600073ffffffffffffffffffffffffffffffffffffffff82169050919050565b6000611bc082611b95565b9050919050565b611bd081611bb5565b8114611bdb57600080fd5b50565b600081359050611bed81611bc7565b92915050565b600080fd5b600080fd5b6000601f19601f8301169050919050565b7f4e487b7100000000000000000000000000000000000000000000000000000000600052604160045260246000fd5b611c4682611bfd565b810181811067ffffffffffffffff82111715611c6557611c64611c0e565b5b80604052505050565b6000611c78611b81565b9050611c848282611c3d565b919050565b600067ffffffffffffffff821115611ca457611ca3611c0e565b5b611cad82611bfd565b9050602081019050919050565b82818337600083830152505050565b6000611cdc611cd784611c89565b611c6e565b905082815260208101848484011115611cf857611cf7611bf8565b5b611d03848285611cba565b509392505050565b600082601f830112611d2057611d1f611bf3565b5b8135611d30848260208601611cc9565b91505092915050565b60008060008060808587031215611d5357611d52611b8b565b5b6000611d6187828801611bde565b945050602085013567ffffffffffffffff811115611d8257611d81611b90565b5b611d8e87828801611d0b565b935050604085013567ffffffffffffffff811115611daf57611dae611b90565b5b611dbb87828801611d0b565b925050606085013567ffffffffffffffff811115611ddc57611ddb611b90565b5b611de887828801611d0b565b91505092959194509250565b6000819050919050565b611e0781611df4565b82525050565b6000602082019050611e226000830184611dfe565b92915050565b600081519050919050565b600082825260208201905092915050565b6000819050602082019050919050565b611e5d81611bb5565b82525050565b6000611e6f8383611e54565b60208301905092915050565b6000602082019050919050565b6000611e9382611e28565b611e9d8185611e33565b9350611ea883611e44565b8060005b83811015611ed9578151611ec08882611e63565b9750611ecb83611e7b565b925050600181019050611eac565b5085935050505092915050565b60006020820190508181036000830152611f008184611e88565b905092915050565b600060208284031215611f1e57611f1d611b8b565b5b6000611f2c84828501611bde565b91505092915050565b600081519050919050565b600082825260208201905092915050565b60005b83811015611f6f578082015181840152602081019050611f54565b83811115611f7e576000848401525b50505050565b6000611f8f82611f35565b611f998185611f40565b9350611fa9818560208601611f51565b611fb281611bfd565b840191505092915050565b611fc681611bb5565b82525050565b600060e0820190508181036000830152611fe6818a611f84565b90508181036020830152611ffa8189611f84565b90506120096040830188611dfe565b818103606083015261201b8187611f84565b905061202a6080830186611dfe565b81810360a083015261203c8185611f84565b905061204b60c0830184611fbd565b98975050505050505050565b61206081611df4565b811461206b57600080fd5b50565b60008135905061207d81612057565b92915050565b60006020828403121561209957612098611b8b565b5b60006120a78482850161206e565b91505092915050565b60006020820190506120c56000830184611fbd565b92915050565b600080604083850312156120e2576120e1611b8b565b5b60006120f085828601611bde565b92505060206121018582860161206e565b9150509250929050565b600060e082019050612120600083018a611dfe565b81810360208301526121328189611f84565b905081810360408301526121468188611f84565b9050818103606083015261215a8187611f84565b90506121696080830186611dfe565b61217660a0830185611fbd565b81810360c08301526121888184611f84565b905098975050505050505050565b60008115159050919050565b6121ab81612196565b82525050565b600060e0820190506121c6600083018a611dfe565b81810360208301526121d88189611f84565b905081810360408301526121ec8188611f84565b90506121fb6060830187611fbd565b818103608083015261220d8186611f84565b905061221c60a0830185611dfe565b61222960c08301846121a2565b98975050505050505050565b60006101008201905061224b600083018b611dfe565b818103602083015261225d818a611f84565b905081810360408301526122718189611f84565b90506122806060830188611fbd565b61228d6080830187611dfe565b61229a60a08301866121a2565b6122a760c0830185611dfe565b81810360e08301526122b98184611f84565b90509998505050505050505050565b600080600080600060a086880312156122e4576122e3611b8b565b5b60006122f288828901611bde565b955050602086013567ffffffffffffffff81111561231357612312611b90565b5b61231f88828901611d0b565b945050604086013567ffffffffffffffff8111156123405761233f611b90565b5b61234c88828901611d0b565b935050606086013567ffffffffffffffff81111561236d5761236c611b90565b5b61237988828901611d0b565b925050608086013567ffffffffffffffff81111561239a57612399611b90565b5b6123a688828901611d0b565b9150509295509295909350565b7f596f752068617665206e6f20726967687420746f2070726f766964652061757460008201527f686f72697a6174696f6e20666f7220766f746500000000000000000000000000602082015250565b600061240f603383611f40565b915061241a826123b3565b604082019050919050565b6000602082019050818103600083015261243e81612402565b9050919050565b7f4e487b7100000000000000000000000000000000000000000000000000000000600052602260045260246000fd5b6000600282049050600182168061248c57607f821691505b602082108114156124a05761249f612445565b5b50919050565b60008190508160005260206000209050919050565b600081546124c881612474565b6124d28186611f40565b945060018216600081146124ed57600181146124ff57612532565b60ff1983168652602086019350612532565b612508856124a6565b60005b8381101561252a5781548189015260018201915060208101905061250b565b808801955050505b50505092915050565b600060e0820190508181036000830152612555818a611f84565b905081810360208301526125698189611f84565b90506125786040830188611fbd565b6125856060830187611dfe565b61259260808301866121a2565b61259f60a0830185611dfe565b81810360c08301526125b181846124bb565b905098975050505050505050565b7f596f75206861766520616c726561647920766f74656400000000000000000000600082015250565b60006125f5601683611f40565b9150612600826125bf565b602082019050919050565b60006020820190508181036000830152612624816125e8565b9050919050565b7f596f752068617665206e6f20726967687420746f20766f746500000000000000600082015250565b6000612661601983611f40565b915061266c8261262b565b602082019050919050565b6000602082019050818103600083015261269081612654565b9050919050565b7f4e487b7100000000000000000000000000000000000000000000000000000000600052601160045260246000fd5b60006126d182611df4565b91506126dc83611df4565b9250827fffffffffffffffffffffffffffffffffffffffffffffffffffffffffffffffff0382111561271157612710612697565b5b828201905092915050565b7f596f752068617665206e6f20617574686f72697a6174696f6e20746f2073657460008201527f2043616e64696461746500000000000000000000000000000000000000000000602082015250565b6000612778602a83611f40565b91506127838261271c565b604082019050919050565b600060208201905081810360008301526127a78161276b565b9050919050565b600060c08201905081810360008301526127c88189611f84565b905081810360208301526127dc8188611f84565b905081810360408301526127f08187611f84565b90506127ff6060830186611dfe565b61280c6080830185611fbd565b81810360a083015261281e81846124bb565b905097965050505050505056fea26469706673582212201c4e3872321efc201171e576fc9c3c55c842374f781d8acdf7c18e3e6a7f3f7a64736f6c63430008090033",
  "linkReferences": {},
  "deployedLinkReferences": {}
}